{
  "contractName": "Poll",
  "abi": [
    {
      "constant": true,
      "inputs": [
        {
          "name": "",
          "type": "uint256"
        }
      ],
      "name": "polls",
      "outputs": [
        {
          "name": "id",
          "type": "uint256"
        },
        {
          "name": "owner",
          "type": "address"
        },
        {
          "name": "question",
          "type": "string"
        },
        {
          "name": "optionCount",
          "type": "uint256"
        },
        {
          "name": "active",
          "type": "bool"
        }
      ],
      "payable": false,
      "stateMutability": "view",
      "type": "function",
      "signature": "0xac2f0074"
    },
    {
      "constant": true,
      "inputs": [
        {
          "name": "",
          "type": "uint256"
        },
        {
          "name": "",
          "type": "uint256"
        }
      ],
      "name": "options",
      "outputs": [
        {
          "name": "id",
          "type": "uint256"
        },
        {
          "name": "option",
          "type": "string"
        },
        {
          "name": "voteCount",
          "type": "uint256"
        }
      ],
      "payable": false,
      "stateMutability": "view",
      "type": "function",
      "signature": "0xbd6d605c"
    },
    {
      "constant": false,
      "inputs": [
        {
          "name": "_question",
          "type": "string"
        },
        {
          "name": "_optionCount",
          "type": "uint256"
        }
      ],
      "name": "addPollQuestion",
      "outputs": [],
      "payable": false,
      "stateMutability": "nonpayable",
      "type": "function",
      "signature": "0x4f1314da"
    },
    {
      "constant": false,
      "inputs": [
        {
          "name": "_option",
          "type": "string"
        },
        {
          "name": "_pollId",
          "type": "uint256"
        }
      ],
      "name": "addPollOption",
      "outputs": [],
      "payable": false,
      "stateMutability": "nonpayable",
      "type": "function",
      "signature": "0xd73b2200"
    },
    {
      "constant": false,
      "inputs": [
        {
          "name": "_pollId",
          "type": "uint256"
        }
      ],
      "name": "changePollStatus",
      "outputs": [],
      "payable": false,
      "stateMutability": "nonpayable",
      "type": "function",
      "signature": "0x73dde72a"
    },
    {
      "constant": false,
      "inputs": [
        {
          "name": "_pollId",
          "type": "uint256"
        },
        {
          "name": "_optionId",
          "type": "uint256"
        }
      ],
      "name": "voteOption",
      "outputs": [],
      "payable": false,
      "stateMutability": "nonpayable",
      "type": "function",
      "signature": "0x509bd337"
    }
  ],
  "bytecode": "0x608060405234801561001057600080fd5b50610c64806100206000396000f3fe608060405260043610610078576000357c0100000000000000000000000000000000000000000000000000000000900463ffffffff1680634f1314da1461007d578063509bd3371461014f57806373dde72a14610194578063ac2f0074146101cf578063bd6d605c146102cf578063d73b22001461039b575b600080fd5b34801561008957600080fd5b5061014d600480360360408110156100a057600080fd5b81019080803590602001906401000000008111156100bd57600080fd5b8201836020820111156100cf57600080fd5b803590602001918460018302840111640100000000831117156100f157600080fd5b91908080601f016020809104026020016040519081016040528093929190818152602001838380828437600081840152601f19601f8201169050808301925050505050505091929192908035906020019092919050505061046d565b005b34801561015b57600080fd5b506101926004803603604081101561017257600080fd5b81019080803590602001909291908035906020019092919050505061054e565b005b3480156101a057600080fd5b506101cd600480360360208110156101b757600080fd5b81019080803590602001909291905050506106ec565b005b3480156101db57600080fd5b50610208600480360360208110156101f257600080fd5b81019080803590602001909291905050506107e9565b604051808681526020018573ffffffffffffffffffffffffffffffffffffffff1673ffffffffffffffffffffffffffffffffffffffff1681526020018060200184815260200183151515158152602001828103825285818151815260200191508051906020019080838360005b83811015610290578082015181840152602081019050610275565b50505050905090810190601f1680156102bd5780820380516001836020036101000a031916815260200191505b50965050505050505060405180910390f35b3480156102db57600080fd5b50610312600480360360408110156102f257600080fd5b8101908080359060200190929190803590602001909291905050506108e4565b6040518084815260200180602001838152602001828103825284818151815260200191508051906020019080838360005b8381101561035e578082015181840152602081019050610343565b50505050905090810190601f16801561038b5780820380516001836020036101000a031916815260200191505b5094505050505060405180910390f35b3480156103a757600080fd5b5061046b600480360360408110156103be57600080fd5b81019080803590602001906401000000008111156103db57600080fd5b8201836020820111156103ed57600080fd5b8035906020019184600183028401116401000000008311171561040f57600080fd5b91908080601f016020809104026020016040519081016040528093929190818152602001838380828437600081840152601f19601f820116905080830192505050505050509192919290803590602001909291905050506109c2565b005b60008111151561047c57600080fd5b60026000815480929190600101919050555060025460008060025481526020019081526020016000206000018190555033600080600254815260200190815260200160002060010160006101000a81548173ffffffffffffffffffffffffffffffffffffffff021916908373ffffffffffffffffffffffffffffffffffffffff160217905550816000806002548152602001908152602001600020600201908051906020019061052d929190610b13565b50806000806002548152602001908152602001600020600301819055505050565b60008083815260200190815260200160002060040160009054906101000a900460ff16151561057c57600080fd5b600460008333604051602001808381526020018273ffffffffffffffffffffffffffffffffffffffff1673ffffffffffffffffffffffffffffffffffffffff166c010000000000000000000000000281526014019250505060405160208183030381529060405280519060200120815260200190815260200160002060009054906101000a900460ff1615151561061257600080fd5b6001600460008433604051602001808381526020018273ffffffffffffffffffffffffffffffffffffffff1673ffffffffffffffffffffffffffffffffffffffff166c010000000000000000000000000281526014019250505060405160208183030381529060405280519060200120815260200190815260200160002060006101000a81548160ff02191690831515021790555060016000838152602001908152602001600020818154811015156106c757fe5b9060005260206000209060030201600201600081548092919060010191905055505050565b60008082815260200190815260200160002060010160009054906101000a900473ffffffffffffffffffffffffffffffffffffffff1673ffffffffffffffffffffffffffffffffffffffff163373ffffffffffffffffffffffffffffffffffffffff1614151561075b57600080fd5b60008082815260200190815260200160002060040160009054906101000a900460ff1615156107b757600160008083815260200190815260200160002060040160006101000a81548160ff0219169083151502179055506107e6565b600080600083815260200190815260200160002060040160006101000a81548160ff0219169083151502179055505b50565b60006020528060005260406000206000915090508060000154908060010160009054906101000a900473ffffffffffffffffffffffffffffffffffffffff1690806002018054600181600116156101000203166002900480601f0160208091040260200160405190810160405280929190818152602001828054600181600116156101000203166002900480156108c15780601f10610896576101008083540402835291602001916108c1565b820191906000526020600020905b8154815290600101906020018083116108a457829003601f168201915b5050505050908060030154908060040160009054906101000a900460ff16905085565b6001602052816000526040600020818154811015156108ff57fe5b906000526020600020906003020160009150915050806000015490806001018054600181600116156101000203166002900480601f0160208091040260200160405190810160405280929190818152602001828054600181600116156101000203166002900480156109b25780601f10610987576101008083540402835291602001916109b2565b820191906000526020600020905b81548152906001019060200180831161099557829003601f168201915b5050505050908060020154905083565b60008082815260200190815260200160002060010160009054906101000a900473ffffffffffffffffffffffffffffffffffffffff1673ffffffffffffffffffffffffffffffffffffffff163373ffffffffffffffffffffffffffffffffffffffff16141515610a3157600080fd5b600080828152602001908152602001600020600301546001600083815260200190815260200160002080549050101515610a6a57600080fd5b6001600082815260200190815260200160002060606040519081016040528060016000858152602001908152602001600020805490508152602001848152602001600081525090806001815401808255809150509060018203906000526020600020906003020160009091929091909150600082015181600001556020820151816001019080519060200190610b01929190610b93565b50604082015181600201555050505050565b828054600181600116156101000203166002900490600052602060002090601f016020900481019282601f10610b5457805160ff1916838001178555610b82565b82800160010185558215610b82579182015b82811115610b81578251825591602001919060010190610b66565b5b509050610b8f9190610c13565b5090565b828054600181600116156101000203166002900490600052602060002090601f016020900481019282601f10610bd457805160ff1916838001178555610c02565b82800160010185558215610c02579182015b82811115610c01578251825591602001919060010190610be6565b5b509050610c0f9190610c13565b5090565b610c3591905b80821115610c31576000816000905550600101610c19565b5090565b9056fea165627a7a723058207ef6b211b75045a6b88470f2e50de7850f2e4c219d54b69afa7978a4b970da830029",
  "source": "pragma solidity >=0.4.21 <0.6.0;\n// pragma experimental ABIEncoderV2;\n\ncontract Poll {\n\n    struct Option {\n        uint id;\n        string option;\n        uint voteCount;\n    }\n\n    struct Question {\n        uint id;\n        address owner;\n        string question;\n        uint optionCount;\n        bool active;\n    }\n\n    mapping(uint => Question) public polls;\n    mapping(uint => Option[]) public options;\n    uint pollsCount;\n    uint optionsCount;\n\n    mapping (bytes32=>bool) voters;\n\n    function addPollQuestion (string memory _question, uint _optionCount) public {\n        require(_optionCount>0);\n        pollsCount++;\n        polls[pollsCount].id = pollsCount;\n        polls[pollsCount].owner = msg.sender;\n        polls[pollsCount].question = _question;\n        polls[pollsCount].optionCount = _optionCount;\n    }\n\n    function addPollOption (string memory _option, uint _pollId) public {\n        require(msg.sender==polls[_pollId].owner);\n        require(options[_pollId].length<polls[_pollId].optionCount);\n        options[_pollId].push(Option({id : options[_pollId].length, option : _option, voteCount : 0}));\n    }\n\n    function changePollStatus (uint _pollId) public {\n        require(msg.sender==polls[_pollId].owner);\n        if(!polls[_pollId].active){\n            polls[_pollId].active = true;\n        }else{\n            polls[_pollId].active = false;\n        }\n    }\n\n    function voteOption (uint _pollId, uint _optionId) public {\n        require(polls[_pollId].active);\n        require(!voters[keccak256(abi.encodePacked(_pollId, msg.sender))]);\n        voters[keccak256(abi.encodePacked(_pollId, msg.sender))] = true;\n        options[_pollId][_optionId].voteCount++;\n    }\n\n}",
  "sourcePath": "/home/jeet/Downloads/work/test/new_stuff/Dvote/contracts/Poll.sol",
  "compiler": {
    "name": "solc",
    "version": "0.5.0+commit.1d4f565a.Emscripten.clang"
  },
  "schemaVersion": "3.0.1",
  "updatedAt": "2019-01-23T20:21:14.536Z",
  "devdoc": {
    "methods": {}
  },
  "userdoc": {
    "methods": {}
  }
}