{
  "contractName": "Poll",
  "abi": [
    {
      "constant": true,
      "inputs": [],
      "name": "pollsCount",
      "outputs": [
        {
          "name": "",
          "type": "uint256"
        }
      ],
      "payable": false,
      "stateMutability": "view",
      "type": "function",
      "signature": "0x179d760d"
    },
    {
      "constant": true,
      "inputs": [
        {
          "name": "",
          "type": "uint256"
        }
      ],
      "name": "polls",
      "outputs": [
        {
          "name": "id",
          "type": "uint256"
        },
        {
          "name": "owner",
          "type": "address"
        },
        {
          "name": "question",
          "type": "string"
        },
        {
          "name": "optionCount",
          "type": "uint256"
        },
        {
          "name": "active",
          "type": "bool"
        }
      ],
      "payable": false,
      "stateMutability": "view",
      "type": "function",
      "signature": "0xac2f0074"
    },
    {
      "constant": true,
      "inputs": [
        {
          "name": "",
          "type": "uint256"
        },
        {
          "name": "",
          "type": "uint256"
        }
      ],
      "name": "options",
      "outputs": [
        {
          "name": "id",
          "type": "uint256"
        },
        {
          "name": "option",
          "type": "string"
        },
        {
          "name": "voteCount",
          "type": "uint256"
        }
      ],
      "payable": false,
      "stateMutability": "view",
      "type": "function",
      "signature": "0xbd6d605c"
    },
    {
      "constant": false,
      "inputs": [
        {
          "name": "_question",
          "type": "string"
        },
        {
          "name": "_optionCount",
          "type": "uint256"
        }
      ],
      "name": "addPollQuestion",
      "outputs": [],
      "payable": false,
      "stateMutability": "nonpayable",
      "type": "function",
      "signature": "0x4f1314da"
    },
    {
      "constant": false,
      "inputs": [
        {
          "name": "_option",
          "type": "string"
        },
        {
          "name": "_pollId",
          "type": "uint256"
        }
      ],
      "name": "addPollOption",
      "outputs": [],
      "payable": false,
      "stateMutability": "nonpayable",
      "type": "function",
      "signature": "0xd73b2200"
    },
    {
      "constant": false,
      "inputs": [
        {
          "name": "_pollId",
          "type": "uint256"
        }
      ],
      "name": "changePollStatus",
      "outputs": [],
      "payable": false,
      "stateMutability": "nonpayable",
      "type": "function",
      "signature": "0x73dde72a"
    },
    {
      "constant": false,
      "inputs": [
        {
          "name": "_pollId",
          "type": "uint256"
        },
        {
          "name": "_optionId",
          "type": "uint256"
        }
      ],
      "name": "voteOption",
      "outputs": [],
      "payable": false,
      "stateMutability": "nonpayable",
      "type": "function",
      "signature": "0x509bd337"
    }
  ],
  "bytecode": "0x608060405234801561001057600080fd5b50610ca0806100206000396000f3fe608060405260043610610083576000357c0100000000000000000000000000000000000000000000000000000000900463ffffffff168063179d760d146100885780634f1314da146100b3578063509bd3371461018557806373dde72a146101ca578063ac2f007414610205578063bd6d605c14610305578063d73b2200146103d1575b600080fd5b34801561009457600080fd5b5061009d6104a3565b6040518082815260200191505060405180910390f35b3480156100bf57600080fd5b50610183600480360360408110156100d657600080fd5b81019080803590602001906401000000008111156100f357600080fd5b82018360208201111561010557600080fd5b8035906020019184600183028401116401000000008311171561012757600080fd5b91908080601f016020809104026020016040519081016040528093929190818152602001838380828437600081840152601f19601f820116905080830192505050505050509192919290803590602001909291905050506104a9565b005b34801561019157600080fd5b506101c8600480360360408110156101a857600080fd5b81019080803590602001909291908035906020019092919050505061058a565b005b3480156101d657600080fd5b50610203600480360360208110156101ed57600080fd5b8101908080359060200190929190505050610728565b005b34801561021157600080fd5b5061023e6004803603602081101561022857600080fd5b8101908080359060200190929190505050610825565b604051808681526020018573ffffffffffffffffffffffffffffffffffffffff1673ffffffffffffffffffffffffffffffffffffffff1681526020018060200184815260200183151515158152602001828103825285818151815260200191508051906020019080838360005b838110156102c65780820151818401526020810190506102ab565b50505050905090810190601f1680156102f35780820380516001836020036101000a031916815260200191505b50965050505050505060405180910390f35b34801561031157600080fd5b506103486004803603604081101561032857600080fd5b810190808035906020019092919080359060200190929190505050610920565b6040518084815260200180602001838152602001828103825284818151815260200191508051906020019080838360005b83811015610394578082015181840152602081019050610379565b50505050905090810190601f1680156103c15780820380516001836020036101000a031916815260200191505b5094505050505060405180910390f35b3480156103dd57600080fd5b506104a1600480360360408110156103f457600080fd5b810190808035906020019064010000000081111561041157600080fd5b82018360208201111561042357600080fd5b8035906020019184600183028401116401000000008311171561044557600080fd5b91908080601f016020809104026020016040519081016040528093929190818152602001838380828437600081840152601f19601f820116905080830192505050505050509192919290803590602001909291905050506109fe565b005b60025481565b6000811115156104b857600080fd5b60026000815480929190600101919050555060025460008060025481526020019081526020016000206000018190555033600080600254815260200190815260200160002060010160006101000a81548173ffffffffffffffffffffffffffffffffffffffff021916908373ffffffffffffffffffffffffffffffffffffffff1602179055508160008060025481526020019081526020016000206002019080519060200190610569929190610b4f565b50806000806002548152602001908152602001600020600301819055505050565b60008083815260200190815260200160002060040160009054906101000a900460ff1615156105b857600080fd5b600460008333604051602001808381526020018273ffffffffffffffffffffffffffffffffffffffff1673ffffffffffffffffffffffffffffffffffffffff166c010000000000000000000000000281526014019250505060405160208183030381529060405280519060200120815260200190815260200160002060009054906101000a900460ff1615151561064e57600080fd5b6001600460008433604051602001808381526020018273ffffffffffffffffffffffffffffffffffffffff1673ffffffffffffffffffffffffffffffffffffffff166c010000000000000000000000000281526014019250505060405160208183030381529060405280519060200120815260200190815260200160002060006101000a81548160ff021916908315150217905550600160008381526020019081526020016000208181548110151561070357fe5b9060005260206000209060030201600201600081548092919060010191905055505050565b60008082815260200190815260200160002060010160009054906101000a900473ffffffffffffffffffffffffffffffffffffffff1673ffffffffffffffffffffffffffffffffffffffff163373ffffffffffffffffffffffffffffffffffffffff1614151561079757600080fd5b60008082815260200190815260200160002060040160009054906101000a900460ff1615156107f357600160008083815260200190815260200160002060040160006101000a81548160ff021916908315150217905550610822565b600080600083815260200190815260200160002060040160006101000a81548160ff0219169083151502179055505b50565b60006020528060005260406000206000915090508060000154908060010160009054906101000a900473ffffffffffffffffffffffffffffffffffffffff1690806002018054600181600116156101000203166002900480601f0160208091040260200160405190810160405280929190818152602001828054600181600116156101000203166002900480156108fd5780601f106108d2576101008083540402835291602001916108fd565b820191906000526020600020905b8154815290600101906020018083116108e057829003601f168201915b5050505050908060030154908060040160009054906101000a900460ff16905085565b60016020528160005260406000208181548110151561093b57fe5b906000526020600020906003020160009150915050806000015490806001018054600181600116156101000203166002900480601f0160208091040260200160405190810160405280929190818152602001828054600181600116156101000203166002900480156109ee5780601f106109c3576101008083540402835291602001916109ee565b820191906000526020600020905b8154815290600101906020018083116109d157829003601f168201915b5050505050908060020154905083565b60008082815260200190815260200160002060010160009054906101000a900473ffffffffffffffffffffffffffffffffffffffff1673ffffffffffffffffffffffffffffffffffffffff163373ffffffffffffffffffffffffffffffffffffffff16141515610a6d57600080fd5b600080828152602001908152602001600020600301546001600083815260200190815260200160002080549050101515610aa657600080fd5b6001600082815260200190815260200160002060606040519081016040528060016000858152602001908152602001600020805490508152602001848152602001600081525090806001815401808255809150509060018203906000526020600020906003020160009091929091909150600082015181600001556020820151816001019080519060200190610b3d929190610bcf565b50604082015181600201555050505050565b828054600181600116156101000203166002900490600052602060002090601f016020900481019282601f10610b9057805160ff1916838001178555610bbe565b82800160010185558215610bbe579182015b82811115610bbd578251825591602001919060010190610ba2565b5b509050610bcb9190610c4f565b5090565b828054600181600116156101000203166002900490600052602060002090601f016020900481019282601f10610c1057805160ff1916838001178555610c3e565b82800160010185558215610c3e579182015b82811115610c3d578251825591602001919060010190610c22565b5b509050610c4b9190610c4f565b5090565b610c7191905b80821115610c6d576000816000905550600101610c55565b5090565b9056fea165627a7a723058202ea8d170da47b08b26f0f6411111fe37bfe0ea3931163ccc40d7f651b74855c10029",
  "source": "pragma solidity >=0.4.21 <0.6.0;\n// pragma experimental ABIEncoderV2;\n\ncontract Poll {\n\n    struct Option {\n        uint id;\n        string option;\n        uint voteCount;\n    }\n\n    struct Question {\n        uint id;\n        address owner;\n        string question;\n        uint optionCount;\n        bool active;\n    }\n\n    mapping(uint => Question) public polls;\n    mapping(uint => Option[]) public options;\n    uint public pollsCount;\n    uint optionsCount;\n\n    mapping (bytes32=>bool) voters;\n\n    function addPollQuestion (string memory _question, uint _optionCount) public {\n        require(_optionCount>0);\n        pollsCount++;\n        polls[pollsCount].id = pollsCount;\n        polls[pollsCount].owner = msg.sender;\n        polls[pollsCount].question = _question;\n        polls[pollsCount].optionCount = _optionCount;\n    }\n\n    function addPollOption (string memory _option, uint _pollId) public {\n        require(msg.sender==polls[_pollId].owner);\n        require(options[_pollId].length<polls[_pollId].optionCount);\n        options[_pollId].push(Option({id : options[_pollId].length, option : _option, voteCount : 0}));\n    }\n\n    function changePollStatus (uint _pollId) public {\n        require(msg.sender==polls[_pollId].owner);\n        if(!polls[_pollId].active){\n            polls[_pollId].active = true;\n        }else{\n            polls[_pollId].active = false;\n        }\n    }\n\n    function voteOption (uint _pollId, uint _optionId) public {\n        require(polls[_pollId].active);\n        require(!voters[keccak256(abi.encodePacked(_pollId, msg.sender))]);\n        voters[keccak256(abi.encodePacked(_pollId, msg.sender))] = true;\n        options[_pollId][_optionId].voteCount++;\n    }\n\n}",
  "sourcePath": "/home/jeet/Downloads/work/test/new_stuff/Dvote/contracts/Poll.sol",
  "compiler": {
    "name": "solc",
    "version": "0.5.0+commit.1d4f565a.Emscripten.clang"
  },
  "schemaVersion": "3.0.1",
  "updatedAt": "2019-01-24T22:38:57.283Z",
  "devdoc": {
    "methods": {}
  },
  "userdoc": {
    "methods": {}
  }
}